:020000040800F2
:100000000090002021020008610B0008630B00082B
:1000100000000000000000000000000000000000E0
:10002000000000000000000000000000650B000858
:100030000000000000000000670B0008690B0008CA
:1000400071020008710200087102000871020008C4
:1000500071020008710200087102000871020008B4
:1000600071020008710200087102000871020008A4
:100070007102000871020008710200087102000894
:1000800071020008710200080000000071020008FF
:1000900071020008710200087102000800000000EF
:1000A00000000000710200087102000871020008DF
:1000B000710200080000000071020008000000004A
:1000C0000000000000000000000000000000000030
:1000D0000000000000000000000000000000000020
:1000E0000000000000000000000000000000000010
:1000F0000000000000000000000000000000000000
:1001000000000000000000000000000000000000EF
:1001100000000000000000000000000000000000DF
:1001200000000000000000000000000000000000CF
:1001300000000000000000000000000000000000BF
:1001400000000000000000000000000000000000AF
:10015000000000000000000000000000000000009F
:100160000000000000000000710200087102000899
:100170007102000800000000000000000000000004
:080180000000000071020008FC
:1001880010B5054C237833B9044B13B10448AFF3C9
:1001980000800123237010BD0C0000200000000027
:1001A8007C0B000808B5034B1BB103490348AFF3A8
:1001B800008008BD00000000100000207C0B000833
:1001C80070B50D4D0D4C641BA4100026A64209D134
:1001D8000B4D0C4C00F0CEFC641BA4100026A6426C
:1001E80005D170BD55F8043B98470136EEE755F840
:1001F800043B98470136F2E7940B0008940B00087B
:10020800940B0008980B000802440346934200D15F
:10021800704703F8011BF9E7DFF834D0002103E049
:100228000C4B5B58435004310B480C4B42189A4214
:10023800F6D30B4A02E0002342F8043B094B9A42EA
:10024800F9D300F08FFCFFF7BBFF00F0B1F9FEE730
:10025800009000209C0B0008000000200C000020EB
:100268000C000020A0020020FEE74FF0804300228F
:100278005A625A6A8242FCD37047000072B6074934
:10028800074B09785A68012903D0064B00221A80C7
:1002980070471B6883F30888104700BF00F8000800
:1002A800001000083E000020F0B5164C0022227015
:1002B8006270134615464AF2010CA9420ADC12B1D3
:1002C80023701B0A6370104B22781A700F4B6278E8
:1002D8001A70F0BD465D082286EA030717F0010F81
:1002E8004FEA530318BF83EA0C0302F1FF3218BF29
:1002F8009BB212F0FF024FEA5606EDD101350122FA
:10030800DBE700BF2800002031000020300000207B
:1003180070B50C4D10260446AE6208213420FFF754
:10032800A4FF0139E3074CBFAE61AE6211F0FF01D3
:100338004FEA5404F2D13420FFF797FF014B102203
:100348009A6170BD0004004838B501460848431852
:10035800455C5C78FFF7A8FF064B1B78AB4205D1DC
:10036800054B1878031B5842584138BD0020FCE75C
:100378007201002031000020300000200C4810B528
:100388000268102393FAA3F1B1FA81F193FAA3F367
:100398000324490004FA01F1B3FA83F322EA0102C3
:1003A8005B00012101FA03F31343036010BD00BF92
:1003B8000004004830B50B4CE36890FAA0F2B2FA9A
:1003C80082F290FAA0F00325B0FA80F0520005FA04
:1003D80002F2400023EA020301FA00F01843E06049
:1003E80030BD00BF00040048194B5A692DE9F3419C
:1003F80042F480225A615B6903F480230193014629
:10040800019B102696FAA6F5124FB5FA85F54FF01E
:10041800010836FA05F302D102B0BDE8F08108FA06
:1004280005F414F0100410D02046FFF7C3FF3A6813
:1004380094FAA4F3B3FA83F303205B0000FA03F3FE
:1004480022EA030394FAA4F43B600135E1E700BF14
:1004580000100240000400480120FFF7C5BF08B59E
:10046800FFF78CFF3020FFF753FFBDE80840FFF788
:10047800F3BF08B5FFF782FFC220FFF749FFBDE8C9
:100488000840FFF7E9BF000038B5FFF777FF084DD0
:10049800002415F8010BFFF73BFF01343420FFF768
:1004A800E4FE092CF5D1BDE83840FFF7D5BF00BF01
:1004B800000000202DE9F04120F00104E31D84B084
:1004C80023F0070300AFADEB030D6E464FEA60085B
:1004D8000D46424600213046FFF796FE314B314625
:1004E8003444A14203F1020338D12F4BC7F80480EA
:1004F800DA68D007FCD41A69110641BF2B4A5A6042
:1005080002F188325A60C5F30A03B3B9264B1A6957
:1005180042F002021A615D611A6942F040021A61F2
:10052800DA68D207FCD4DA68940644BF2022DA607D
:100538001D4A136923F0020313610023BB60FB60AB
:10054800194B2021F8687A6890421A690FD342F053
:10055800800210371A61BD46BDE8F08113F8012CFE
:1005680013F8020C40EA022021F8020BB9E742F026
:1005780001021A61F868BA6836F81000A852DA68F9
:10058800D007FCD4DA68920648BFD9601A6922F00D
:1005980001021A61BA680232BA60FA680132FA6076
:1005A800D0E700BF43000020002002402301674538
:1005B8002DE98048B04C87B0A36943F00103A361DB
:1005C800A36900AF03F001033B613B69E36943F0B2
:1005D8008053E361E36903F08053FB60FB68A74B3A
:1005E8001A6842F010021A601A6822F0070242F0F4
:1005F80002021A601A6802F00702022AFAD1236876
:1006080043F00103236023689907FCD5236823F08E
:10061800F80343F080032360636A43F001036362D5
:10062800636A9A07FCD5636823F4741343F4601370
:100638006360E36A23F00F03E362236843F0807387
:10064800236023689B01FCD5636823F0F003636093
:10065800636823F4E06343F480636360636823F4AE
:1006680060536360636823F0030343F0020363602D
:10067800636803F00C03082BFAD14FF0E0234FF620
:10068800FF125A61002505229D6128461A61FFF76D
:10069800ABFEE36943F00103E361E369784C03F0DF
:1006A80001037B617B694FF0804302211A6822F4C1
:1006B8005C721A604FF0FF32DA623F229A625A691E
:1006C80042F001025A611A6822F080021A609A68A0
:1006D80022F4A03222F007029A605A6822F07002CF
:1006E8005A609A6822F080029A601A6842F0010201
:1006F8001A601020FFF75EFE1020FFF75BFE4FF434
:10070800FA70FFF7B2FD01462369DE0658BF0135CE
:100718004FF00A0058BFADB2FFF7A7FD0139F3D17A
:10072800BDB11020FFF746FE4FF4FA70FFF79DFDAC
:10073800534D04462B69D80658BF01314FF00A00C3
:1007480058BF89B2FFF791FD013CF3D109B1FFF71A
:1007580095FD01211020FFF72DFE4A4B4A4C4B49CD
:100768001422DA704A4B224613F8010B02F8010BE7
:100778008B42F9D1A378082B05D0013BDBB2FD2BC6
:100788009CBF0823A370434D0026434B3E48DFF827
:100798000CA1DFF8ECB02E6000214FF496721E70A9
:1007A800A046FFF731FD00213E713B798AF8003001
:1007B8003B4B4FF08040DBF81020D20625D5364B56
:1007C80018784FF0804CDBF8102012F0100973D124
:1007D8001A20FFF74AFD3420FFF747FDDBF8102009
:1007E8009AF80000C2F3001202FA09F209F10109AD
:1007F8000243B9F1080F8AF80020ECD11A20FFF75C
:1008080034FD254B01221A7005E0426A9A42D2D97A
:10081800244A65201080DFF8909099F8000000289D
:1008280060D0224B2A68B3F800C00CF1020C944542
:1008380049D11E4BDFF878801888A8F80000FFF728
:1008480083FD002854D04FF4967200211948FFF711
:10085800DBFCB8F80000174A21460023834266DB18
:10086800FFF7FDFD89F800600E4B1B88642B8CD9BF
:10087800FFF704FD89E700BF001002400020024096
:1008880000040048000000207201002030F8000831
:1008980000F8000838000020420000209E020020D6
:1008A800400D03003E0000203C00002070010020A5
:1008B8004000002043000020DCF82420FA2A82D9D6
:1008C800002880D0A7E79AF800C088F800C0013255
:1008D8002A600131B1F5967F08F101087FF465AF10
:1008E80030B1A6E74FF08042526AFA2A12D928603E
:1008F800914B94F80080C3F80080237C7D2B1CD199
:10090800237A0D2B19D1637A422B16D1FFF7BCFD40
:100918002675A9E79AF8002088F8002040F201120D
:10092800914201BF854B1A8814321A80D1E711F819
:1009380001CB02F801CB013390E7237D7D2B05D154
:10094800237B0D2B02D1637B422BDFD094F8283018
:100958007D2B07D194F820300D2B03D194F821304A
:10096800422BD3D0B8F1000F25D1A2786378134376
:10097800E278134302D1714B65221A802378FD2B4C
:1009880005D16F4B02201880FFF7DEFC40BBB8F1A1
:10099800020F5DD16A4B4046A3F80080FFF7D4FCF4
:1009A800D8B9FFF7EBFCC120FFF7B2FC634A138804
:1009B8000133138019E0B8F1010F1CD1604B0220FC
:1009C8001880FFF7C1FC98B15E4B19685E4B9942DD
:1009D80006D95E4B1888FFF76DFDFFF740FD43E72A
:1009E800FFF7CCFCC120FFF793FCFFF735FD3BE791
:1009F800FFF73FFD38E7B8F1050F7ED1504B0220D5
:100A08001880FFF7A1FC0028B8D04E4B196801F5F3
:100A18008031DEE7FFF72DFDB9F800300133A9F882
:100A2800003021E7B8F1FE0FA8D1454B042018800B
:100A3800FFF78AFC0028DBD0A378444A012B14BFB7
:100A4800E3784FF480731380012389F80030CCE7F2
:100A5800B8F1030FA5D13A4B94F801800220188011
:100A68002B68B8F1000F03F1010308BF4FF4807839
:100A78002B60FFF769FC0028BAD0FFF77FFC08F16C
:100A880002037B6008F10A0323F00703EA4608F132
:100A98000309ADEB030D4A4600216846FFF7B4FB96
:100AA800284AEB4610680022815C0BF802100132DC
:100AB8009045F9DC41465846FFF7F6FB244A7B6827
:100AC80012780BF808200131224A89B212780BF803
:100AD800012030220BF803204FF000081BF8080013
:100AE800FFF716FC08F101083420FFF7BEFBC145EB
:100AF800F4DCFFF7B1FCD546B6E6B8F1FF0F91D1AB
:100B08000F4B94F80280DFF8349004201880E378C3
:100B180048EA0328FFF718FC00283FF47BAF98FA4F
:100B280098F3084AA9F800609BB203F100631360C8
:100B3800FFF795FC29E600BF340000203E000020A6
:100B4800400000202C000020FF0F0008700100204A
:100B580031000020300000207047FEE770477047E2
:100B680070470000024B4FF000629A60704700BF68
:100B780000ED00E0F8B500BFF8BC08BC9E46704721
:0C0B8800F8B500BFF8BC08BC9E467047E2
:040B9400AD010008A7
:040B980089010008C7
:0C0B9C00343731643506060130000000DB
:0400000508000221CC
:00000001FF
