:020000040800F2
:100000000090002021020008610B0008630B00082B
:1000100000000000000000000000000000000000E0
:10002000000000000000000000000000650B000858
:100030000000000000000000670B0008690B0008CA
:1000400071020008710200087102000871020008C4
:1000500071020008710200087102000871020008B4
:1000600071020008710200087102000871020008A4
:100070007102000871020008710200087102000894
:1000800071020008710200080000000071020008FF
:1000900071020008710200087102000800000000EF
:1000A00000000000710200087102000871020008DF
:1000B000710200080000000071020008000000004A
:1000C0000000000000000000000000000000000030
:1000D0000000000000000000000000000000000020
:1000E0000000000000000000000000000000000010
:1000F0000000000000000000000000000000000000
:1001000000000000000000000000000000000000EF
:1001100000000000000000000000000000000000DF
:1001200000000000000000000000000000000000CF
:1001300000000000000000000000000000000000BF
:1001400000000000000000000000000000000000AF
:10015000000000000000000000000000000000009F
:100160000000000000000000710200087102000899
:100170007102000800000000000000000000000004
:080180000000000071020008FC
:1001880010B5054C237833B9044B13B10448AFF3C9
:1001980000800123237010BD0C0000200000000027
:1001A8007C0B000808B5034B1BB103490348AFF3A8
:1001B800008008BD00000000100000207C0B000833
:1001C80070B50D4D0D4C641BA4100026A64209D134
:1001D8000B4D0C4C00F0CEFC641BA4100026A6426C
:1001E80005D170BD55F8043B98470136EEE755F840
:1001F800043B98470136F2E7940B0008940B00087B
:10020800940B0008980B000802440346934200D15F
:10021800704703F8011BF9E7DFF834D0002103E049
:100228000C4B5B58435004310B480C4B42189A4214
:10023800F6D30B4A02E0002342F8043B094B9A42EA
:10024800F9D300F08FFCFFF7BBFF00F0ABF9FEE736
:10025800009000209C0B0008000000200C000020EB
:100268000C000020A0020020FEE74FF0804300228F
:100278005A625A6A8242FCD37047000072B6074934
:10028800074B09785A68012903D0064B00221A80C7
:1002980070471B6883F30888104700BF00F8000800
:1002A800001000083E000020F0B5164C0022227015
:1002B8006270134615464AF2010CA9420ADC12B1D3
:1002C80023701B0A6370104B22781A700F4B6278E8
:1002D8001A70F0BD465D082286EA030717F0010F81
:1002E8004FEA530318BF83EA0C0302F1FF3218BF29
:1002F8009BB212F0FF024FEA5606EDD101350122FA
:10030800DBE700BF2800002031000020300000207B
:1003180070B54FF0904504260446AE62082134209B
:10032800FFF7A3FF0139E3074CBFAE61AE6211F0DE
:10033800FF014FEA5404F2D13420FFF796FF4FF043
:10034800904304229A6170BD38B5014608484318A5
:10035800455C5C78FFF7A8FF064B1B78AB4205D1DC
:10036800054B1878031B5842584138BD0020FCE75C
:100378007201002031000020300000204FF0904032
:1003880010B50268042393FAA3F1B1FA81F193FA44
:10039800A3F30324490004FA01F1B3FA83F322EA30
:1003A80001025B00012101FA03F31343036010BD4E
:1003B80030B54FF09044E36890FAA0F2B2FA82F2B6
:1003C80090FAA0F00325B0FA80F0520005FA02F284
:1003D800400023EA020301FA00F01843E06030BD50
:1003E800194B5A692DE9F34142F400325A615B69AD
:1003F80003F4003301930146019B042696FAA6F5FF
:100408004FF00108B5FA85F54FF0904736FA05F335
:1004180002D102B0BDE8F08108FA05F414F0040432
:1004280010D02046FFF7C4FF3A6894FAA4F3B3FA51
:1004380083F303205B0000FA03F322EA030394FA30
:10044800A4F43B600135E1E7001002400120FFF70A
:10045800C7BF08B5FFF792FF3020FFF759FFBDE887
:100468000840FFF7F3BF08B5FFF788FFC220FFF782
:100478004FFFBDE80840FFF7E9BF000038B5FFF7B8
:100488007DFF084D002415F8010BFFF741FF0134EB
:100498003420FFF7EAFE092CF5D1BDE83840FFF714
:1004A800D5BF00BF000000202DE9F04120F0010475
:1004B800E31D84B023F0070300AFADEB030D6E46D8
:1004C8004FEA60080D46424600213046FFF79CFE81
:1004D800314B31463444A14203F1020338D12F4B4A
:1004E800C7F80480DA68D007FCD41A69110641BF3E
:1004F8002B4A5A6002F188325A60C5F30A03B3B92D
:10050800264B1A6942F002021A615D611A6942F0CB
:1005180040021A61DA68D207FCD4DA68940644BF4C
:100528002022DA601D4A136923F0020313610023B5
:10053800BB60FB60194B2021F8687A6890421A6901
:100548000FD342F0800210371A61BD46BDE8F08132
:1005580013F8012C13F8020C40EA022021F8020BD0
:10056800B9E742F001021A61F868BA6836F8100073
:10057800A852DA68D007FCD4DA68920648BFD96076
:100588001A6922F001021A61BA680232BA60FA687E
:100598000132FA60D0E700BF43000020002002408B
:1005A800230167452DE98048974C87B0A36943F03C
:1005B8000103A361A36900AF03F001033B613B6939
:1005C800E36943F08053E361E36903F08053FB6020
:1005D800FB688E4B1A6842F010021A601A6822F003
:1005E800070242F002021A601A6802F00702022AA1
:1005F800FAD1236843F00103236023689B07FCD5E5
:10060800236823F0F80343F080032360636A43F010
:1006180001036362636A9E07FCD5636823F474135D
:1006280043F460136360E36A23F00F03E362236813
:1006380043F08073236023689D01FCD5636823F031
:10064800F0036360636823F4E06343F480636360EA
:10065800636823F460536360636823F0030343F023
:1006680002036360636803F00C03082BFAD14FF0B0
:10067800E0234FF6FF125A61002505229D612846A6
:100688001A61FFF7ADFEE36943F00103E361E36933
:1006980003F001037B617B694FF0804302211A68F4
:1006A80022F45C721A604FF0FF32DA623F229A62DB
:1006B8005A6942F001025A611A6822F080021A60EF
:1006C8009A6822F4A03222F007029A605A6822F04F
:1006D80070025A609A6822F080029A601A6842F0A2
:1006E80001021A600420FFF763FE0420FFF760FE92
:1006F8004FF4FA70FFF7B9FD01464FF090442369B3
:10070800580758BF01354FF00A0058BFADB2FFF780
:10071800ACFD0139F3D1C5B10420FFF749FE4FF410
:10072800FA70FFF7A2FD04464FF090452B695A076F
:1007380058BF01314FF00A0058BF89B2FFF795FD45
:10074800013CF3D109B1FFF799FD01210420FFF71E
:100758002FFE2F4B2F4C30490222DA702F4B2246A6
:1007680013F8010B02F8010B8B42F9D1A378082B7F
:1007780005D0013BDBB2FD2B9CBF0823A370284D9D
:100788000026DFF8A0A02348DFF89CB02E600021E7
:100798004FF496728AF80060A046FFF735FD0021F5
:1007A8003E713B798BF800304FF090404FF0804C11
:1007B800026953073AD59AF800004FF090424FF07B
:1007C800804C136913F0040968D11A20FFF74DFD16
:1007D8003420FFF74AFD4FF090429BF800C01069A3
:1007E800C0F3800000FA09F009F1010940EA0C00A1
:1007F800B9F1080F8BF80000EAD11A20FFF735FD90
:1008080001228AF8002019E000100240002002406E
:10081800000000207201002030F8000800F80008ED
:1008280038000020420000209E020020DCF824202E
:10083800AB4B9A42BCD9AB4A65201080DFF8A8922E
:1008480099F8000000283FD0A84B2A68B3F800C0E8
:100858000CF1020C944528D1A44BDFF89482188837
:10086800A8F80000FFF770FDA0B34FF496720021BE
:10087800A048FFF7C9FCB8F800009E4A21460023AB
:10088800834246DBFFF7E5FD89F80060954B1B883E
:10089800642B7FF676AFFFF7F1FC72E7DCF82430C3
:1008A800FA2B8ED900288CD0C8E79BF800C088F8AE
:1008B80000C001322A600131B1F5967F08F10108C4
:1008C8007FF46FAF30B1C7E74FF08042526AFA2A1F
:1008D80012D92860884B94F80080C3F80080237CE4
:1008E8007D2B1CD1237A0D2B19D1637A422B16D17B
:1008F800FFF7C4FD2675C9E79BF8002088F800209B
:1009080040F20112914201BF764B1A8814321A80C4
:10091800D1E711F801CB02F801CB0133B0E7237D11
:100928007D2B05D1237B0D2B02D1637B422BDFD09E
:1009380094F828307D2B07D194F820300D2B03D163
:1009480094F82130422BD3D0B8F1000F25D1A278EA
:1009580063781343E278134302D1624B65221A800D
:100968002378FD2B05D1624B02201880FFF7ECFCA1
:1009780040BBB8F1020F5ED15D4B4046A3F8008042
:10098800FFF7E2FCD8B9FFF7F9FCC120FFF7C0FC7C
:10099800544A13880133138019E0B8F1010F1CD1B0
:1009A800534B02201880FFF7CFFC98B1534B1968BE
:1009B800534B994206D94D4B1888FFF775FDFFF741
:1009C80048FD63E7FFF7DAFCC120FFF7A1FCFFF75A
:1009D8003DFD5BE7FFF747FD58E7B8F1050F40F02D
:1009E8009580434B02201880FFF7AEFC0028B7D053
:1009F800424B196801F58031DDE7FFF734FDB9F89E
:100A080000300133A9F8003040E7B8F1FE0FA7D154
:100A1800374B04201880FFF797FC0028DAD0A3781A
:100A2800324A012B14BFE3784FF4807313800123FB
:100A380089F80030CBE7B8F1030FA4D12C4B94F818
:100A48000180022018802B68B8F1000F03F1010320
:100A580008BF4FF480782B60FFF776FC0028B9D0E8
:100A6800FFF78CFC08F102037B6008F10A0323F00E
:100A78000703EA4608F10309ADEB030D4A460021D6
:100A88006846FFF7C1FB1D4AEB4610680022815CEF
:100A98000BF8021001329045F9DC41465846FFF741
:100AA80003FC184A7B6812780BF808200131164AB3
:100AB80089B212780BF8012030220BF803204FF08E
:100AC80000081BF80800FFF723FC08F10108342090
:100AD800FFF7CBFBC145F4DCFFF7B8FCD546D5E6FC
:100AE800400D03003E0000203C0000207001002063
:100AF8004000002043000020340000202C0000208B
:100B0800FF0F00083100002030000020B8F1FF0F6F
:100B18007FF47BAF0D4B94F80280DFF8349004200B
:100B28001880E37848EA0328FFF70EFC00283FF412
:100B380064AF98FA98F3074AA9F800609BB203F1EA
:100B480000631360FFF785FC1BE600BF4000002030
:100B58003E0000202C0000207047FEE770477047D9
:100B680070470000024B4FF000629A60704700BF68
:100B780000ED00E0F8B500BFF8BC08BC9E46704721
:0C0B8800F8B500BFF8BC08BC9E467047E2
:040B9400AD010008A7
:040B980089010008C7
:0C0B9C00343731643506060130000000DB
:0400000508000221CC
:00000001FF
